S0150000444D585F66616465725F365F322E737265639F
S11300000C9434000C9451000C9451000C94510045
S11300100C9451000C9451000C9451000C94510018
S11300200C9451000C9451000C9451000C94510008
S11300300C9451000C9451000C9451000C945100F8
S11300400C9451000C9451000C9451000C945100E8
S11300500C94DB000C9473000C9451000C9451002C
S11300600C9428010C94510011241FBECFEFD4E04E
S1130070DEBFCDBF11E0A0E0B1E0E6EAF3E002C0EC
S113008005900D92A230B107D9F721E0A2E0B1E0CA
S113009001C01D92AF33B207E1F70E94B9000C947E
S11300A0D1010C940000389A8AB184618AB94098CD
S11300B08BB18B7E8BB98AB1867F8AB922988BB13A
S11300C089608BB92A9A089587B1817F87B9809115
S11300D00001806280937C00EAE7F0E080818F6C0D
S11300E08083789408951F920F920FB60F92112473
S11300F08F93EF93FF93E0910001F0E080917900FA
S1130100E75FFE4F80831A9B05C0409A8FEF809370
S11301100A0101C04098489B05C05A9A8FEF80930A
S11301200B0101C05A984B9B05C05C9A8FEF8093DA
S11301300C0101C05C98809100018F5F80930001E5
S113014080910001843018F081E080930001809157
S11301500001806280937C00EAE7F0E080818064A3
S11301608083FF91EF918F910F900FBE0F901F909E
S113017018950E94C1000E9453000E946400789464
S1130180FFCF88E48093C1008EE08093C200109278
S1130190C50083E08093C4001092C60080E090E024
S11301A0FC01E65FFE4F1082019682339105C1F790
S11301B010923E0108951F920F920FB60F921124D0
S11301C02F933F938F939F93EF93FF9380913E01DF
S11301D081110BC01092C5008AE08093C400109274
S11301E0C60081E080933E0128C0813079F41092EA
S11301F0C50083E08093C4001092C60082E080931F
S11302003E0110923D0110923C0117C080913C01C7
S113021090913D019C012F5F3F4FFC01E65FFE4F33
S113022080818093C6002233310519F410923E0177
S113023004C030933D0120933C01FF91EF919F91C5
S11302408F913F912F910F900FBE0F901F90189593
S11302501F920F920FB60F9211248F939F93EF93D7
S1130260FF938091B900803909F463C090F480371A
S113027009F44CC038F4882309F479C0803609F4B1
S11302804AC07DC0803809F454C0883809F46FC06E
S113029076C0883A81F038F4883909F468C0803A25
S11302A009F45FC06CC0803CD9F0883C09F45FC09D
S11302B0883B19F064C010920201E091020181E0D0
S11302C08E0F80930201F0E0EA5FFE4F80818093FD
S11302D0BB0085EC8093BC0081E08093040158C08E
S11302E09091020180910501981306C08091030149
S11302F081608093030104C08091B900809301015F
S113030085EC8093BC001092040142C080910301EB
S113031084608093030180910301826080930301D0
S11303201092020185EC8093BC0081E0809304016B
S11303302FC0E091020181E08E0F80930201809131
S1130340BB00F0E0EA5FFE4F80838091030181608F
S11303508093030185EC8093BC0081E080930401C9
S113036017C085EC8093BC001092040111C08091E9
S1130370B9008093010180E98093BC0009C0809199
S1130380B9008093010185EC8093BC0010920401B4
S1130390FF91EF919F918F910F900FBE0F901F903F
S10903A01895F894FFCF4C
S10503A601F858
S9030000FC
