:100000000C9434000C9451000C9451000C94510049
:100010000C9451000C9451000C9451000C9451001C
:100020000C9451000C9451000C9451000C9451000C
:100030000C9451000C9451000C9451000C945100FC
:100040000C9451000C9451000C9451000C945100EC
:100050000C9426010C9473000C9451000C945100E4
:100060000C94CF010C94510011241FBECFEFD4E0AB
:10007000DEBFCDBF11E0A0E0B1E0E4EFF4E002C0EC
:1000800005900D92A230B107D9F721E0A2E0B1E0CE
:1000900001C01D92A434B207E1F70E940E010C9436
:1000A00078020C940000389A8AB184618AB9409829
:1000B0008BB18B7E8BB98AB1867F8AB922988BB13E
:1000C00089608BB92A9A089587B1817F87B9809119
:1000D0000001806280937C00EAE7F0E080818F6C11
:1000E0008083789408951F920F920FB60F92112477
:1000F000EF92FF920F931F932F933F934F935F9332
:100100006F937F938F939F93AF93BF93CF93DF931F
:10011000EF93FF93C0910001D0E02197E09100019F
:10012000F0E0EF5FFE4F60818091790090E0880FF2
:10013000991F880F991F0E947301CE5FDE4F88833D
:10014000E0910001F0E0A0910001B0E0AF5FBE4F90
:100150008C91E25FFE4F80831A9B05C0409A8FEF1F
:1001600080930F0101C04098489B05C05A9A8FEFB9
:100170008093100101C05A984B9B05C05C9A8FEF89
:100180008093110101C05C98809100018F5F809382
:10019000000180910001843000F181E08093000132
:1001A00083B129B199B182FB882780F920FBEE2425
:1001B000E0F8F12CEE0CFF1CE82A93FB002700F975
:1001C00010E0000F111F000F111F0E2900930501F1
:1001D00064E082E091E00E949001809100018062E1
:1001E00080937C00EAE7F0E0808180648083FF9167
:1001F000EF91DF91CF91BF91AF919F918F917F91BF
:100200006F915F914F913F912F911F910F91FF90AF
:10021000EF900F900FBE0F901F901895CF93DF9324
:1002200000D000D0CDB7DEB719821A821B821C82A3
:1002300080E20E94A30164E0CE0101960E94AB011E
:100240000E9453000E9464007894FFCF1F920F9287
:100250000FB60F9211242F933F938F939F93EF9399
:10026000FF938091430181110BC01092C5008AE079
:100270008093C4001092C60081E08093430128C09F
:10028000813079F41092C50083E08093C40010920D
:10029000C60082E080934301109242011092410116
:1002A00017C080914101909142019C012F5F3F4F07
:1002B000FC01E15FFE4F80818093C600223331054F
:1002C00019F41092430104C030934201209341017C
:1002D000FF91EF919F918F913F912F910F900FBEC2
:1002E0000F901F901895262F30E0220F331F220FFA
:1002F000331F662391F0A9014350510984179507D4
:1003000028F02D5F3F4F2817390728F496958795D9
:10031000969587950895862F08952D5F3F4FF3CFCB
:1003200060930901662371F0FC01AAE0B1E061501D
:1003300070E06F5F7F4F860F971F21912D93E81715
:10034000F907D9F708958093BA0084E08093BC0040
:100350001092080108959C01909108019111FECF1F
:1003600060930901662379F0F901AAE0B1E06150D8
:1003700070E06F5F7F4FC901860F971F21912D930A
:10038000E817F907D9F71092070188EF8093010168
:1003900085EC8093BC0081E08093080108951F9252
:1003A0000F920FB60F9211248F939F93EF93FF93A9
:1003B0008091B900803909F463C090F4803709F462
:1003C0004CC038F4882309F479C0803609F44AC057
:1003D0007DC0803809F454C0883809F46FC076C0F5
:1003E000883A81F038F4883909F468C0803A09F411
:1003F0005FC06CC0803CD9F0883C09F45FC0883B8A
:1004000019F064C010920601E091060181E08E0FA0
:1004100080930601F0E0E65FFE4F80818093BB0091
:1004200085EC8093BC0081E08093080158C09091D6
:10043000060180910901981306C08091070181602F
:100440008093070104C08091B9008093010185EC7D
:100450008093BC001092080142C080910701846023
:1004600080930701809107018260809307011092B9
:10047000060185EC8093BC0081E0809308012FC0C9
:10048000E091060181E08E0F809306018091BB0010
:10049000F0E0E65FFE4F80838091070181608093EA
:1004A000070185EC8093BC0081E08093080117C0B0
:1004B00085EC8093BC001092080111C08091B900B6
:1004C0008093010180E98093BC0009C08091B9004C
:1004D0008093010185EC8093BC0010920801FF918C
:1004E000EF919F918F910F900FBE0F901F901895D5
:0404F000F894FFCFAE
:0204F40001F80D
:00000001FF
